{
  "_format": "hh-sol-artifact-1",
  "contractName": "MetaStrike",
  "sourceName": "contracts/Token/MetaStrike.sol",
  "abi": [
    {
      "inputs": [],
      "stateMutability": "nonpayable",
      "type": "constructor"
    },
    {
      "anonymous": false,
      "inputs": [
        {
          "indexed": true,
          "internalType": "address",
          "name": "owner",
          "type": "address"
        },
        {
          "indexed": true,
          "internalType": "address",
          "name": "spender",
          "type": "address"
        },
        {
          "indexed": false,
          "internalType": "uint256",
          "name": "value",
          "type": "uint256"
        }
      ],
      "name": "Approval",
      "type": "event"
    },
    {
      "anonymous": false,
      "inputs": [
        {
          "indexed": true,
          "internalType": "address",
          "name": "previousOwner",
          "type": "address"
        },
        {
          "indexed": true,
          "internalType": "address",
          "name": "newOwner",
          "type": "address"
        }
      ],
      "name": "OwnershipTransferred",
      "type": "event"
    },
    {
      "anonymous": false,
      "inputs": [
        {
          "indexed": false,
          "internalType": "address",
          "name": "account",
          "type": "address"
        }
      ],
      "name": "Paused",
      "type": "event"
    },
    {
      "anonymous": false,
      "inputs": [
        {
          "indexed": true,
          "internalType": "address",
          "name": "from",
          "type": "address"
        },
        {
          "indexed": true,
          "internalType": "address",
          "name": "to",
          "type": "address"
        },
        {
          "indexed": false,
          "internalType": "uint256",
          "name": "value",
          "type": "uint256"
        }
      ],
      "name": "Transfer",
      "type": "event"
    },
    {
      "anonymous": false,
      "inputs": [
        {
          "indexed": false,
          "internalType": "address",
          "name": "account",
          "type": "address"
        }
      ],
      "name": "Unpaused",
      "type": "event"
    },
    {
      "inputs": [],
      "name": "LPAddress",
      "outputs": [
        {
          "internalType": "address",
          "name": "",
          "type": "address"
        }
      ],
      "stateMutability": "view",
      "type": "function"
    },
    {
      "inputs": [
        {
          "internalType": "address",
          "name": "owner",
          "type": "address"
        },
        {
          "internalType": "address",
          "name": "spender",
          "type": "address"
        }
      ],
      "name": "allowance",
      "outputs": [
        {
          "internalType": "uint256",
          "name": "",
          "type": "uint256"
        }
      ],
      "stateMutability": "view",
      "type": "function"
    },
    {
      "inputs": [
        {
          "internalType": "address",
          "name": "spender",
          "type": "address"
        },
        {
          "internalType": "uint256",
          "name": "amount",
          "type": "uint256"
        }
      ],
      "name": "approve",
      "outputs": [
        {
          "internalType": "bool",
          "name": "",
          "type": "bool"
        }
      ],
      "stateMutability": "nonpayable",
      "type": "function"
    },
    {
      "inputs": [
        {
          "internalType": "address",
          "name": "account",
          "type": "address"
        }
      ],
      "name": "balanceOf",
      "outputs": [
        {
          "internalType": "uint256",
          "name": "",
          "type": "uint256"
        }
      ],
      "stateMutability": "view",
      "type": "function"
    },
    {
      "inputs": [
        {
          "internalType": "uint256",
          "name": "amount",
          "type": "uint256"
        }
      ],
      "name": "burn",
      "outputs": [],
      "stateMutability": "nonpayable",
      "type": "function"
    },
    {
      "inputs": [
        {
          "internalType": "address",
          "name": "account",
          "type": "address"
        },
        {
          "internalType": "uint256",
          "name": "amount",
          "type": "uint256"
        }
      ],
      "name": "burnFrom",
      "outputs": [],
      "stateMutability": "nonpayable",
      "type": "function"
    },
    {
      "inputs": [],
      "name": "decimals",
      "outputs": [
        {
          "internalType": "uint8",
          "name": "",
          "type": "uint8"
        }
      ],
      "stateMutability": "view",
      "type": "function"
    },
    {
      "inputs": [
        {
          "internalType": "address",
          "name": "spender",
          "type": "address"
        },
        {
          "internalType": "uint256",
          "name": "subtractedValue",
          "type": "uint256"
        }
      ],
      "name": "decreaseAllowance",
      "outputs": [
        {
          "internalType": "bool",
          "name": "",
          "type": "bool"
        }
      ],
      "stateMutability": "nonpayable",
      "type": "function"
    },
    {
      "inputs": [],
      "name": "endTime",
      "outputs": [
        {
          "internalType": "uint256",
          "name": "",
          "type": "uint256"
        }
      ],
      "stateMutability": "view",
      "type": "function"
    },
    {
      "inputs": [
        {
          "internalType": "address",
          "name": "spender",
          "type": "address"
        },
        {
          "internalType": "uint256",
          "name": "addedValue",
          "type": "uint256"
        }
      ],
      "name": "increaseAllowance",
      "outputs": [
        {
          "internalType": "bool",
          "name": "",
          "type": "bool"
        }
      ],
      "stateMutability": "nonpayable",
      "type": "function"
    },
    {
      "inputs": [],
      "name": "maxAmount",
      "outputs": [
        {
          "internalType": "uint256",
          "name": "",
          "type": "uint256"
        }
      ],
      "stateMutability": "view",
      "type": "function"
    },
    {
      "inputs": [
        {
          "internalType": "address",
          "name": "to",
          "type": "address"
        },
        {
          "internalType": "uint256",
          "name": "amount",
          "type": "uint256"
        }
      ],
      "name": "mint",
      "outputs": [],
      "stateMutability": "nonpayable",
      "type": "function"
    },
    {
      "inputs": [],
      "name": "name",
      "outputs": [
        {
          "internalType": "string",
          "name": "",
          "type": "string"
        }
      ],
      "stateMutability": "view",
      "type": "function"
    },
    {
      "inputs": [],
      "name": "owner",
      "outputs": [
        {
          "internalType": "address",
          "name": "",
          "type": "address"
        }
      ],
      "stateMutability": "view",
      "type": "function"
    },
    {
      "inputs": [],
      "name": "pause",
      "outputs": [],
      "stateMutability": "nonpayable",
      "type": "function"
    },
    {
      "inputs": [],
      "name": "paused",
      "outputs": [
        {
          "internalType": "bool",
          "name": "",
          "type": "bool"
        }
      ],
      "stateMutability": "view",
      "type": "function"
    },
    {
      "inputs": [],
      "name": "renounceOwnership",
      "outputs": [],
      "stateMutability": "nonpayable",
      "type": "function"
    },
    {
      "inputs": [
        {
          "internalType": "address",
          "name": "_LPAddress",
          "type": "address"
        },
        {
          "internalType": "uint256",
          "name": "_maxAmount",
          "type": "uint256"
        },
        {
          "internalType": "uint256",
          "name": "_startTime",
          "type": "uint256"
        },
        {
          "internalType": "uint256",
          "name": "_endTime",
          "type": "uint256"
        }
      ],
      "name": "setupListing",
      "outputs": [],
      "stateMutability": "nonpayable",
      "type": "function"
    },
    {
      "inputs": [],
      "name": "startTime",
      "outputs": [
        {
          "internalType": "uint256",
          "name": "",
          "type": "uint256"
        }
      ],
      "stateMutability": "view",
      "type": "function"
    },
    {
      "inputs": [],
      "name": "symbol",
      "outputs": [
        {
          "internalType": "string",
          "name": "",
          "type": "string"
        }
      ],
      "stateMutability": "view",
      "type": "function"
    },
    {
      "inputs": [],
      "name": "totalSupply",
      "outputs": [
        {
          "internalType": "uint256",
          "name": "",
          "type": "uint256"
        }
      ],
      "stateMutability": "view",
      "type": "function"
    },
    {
      "inputs": [
        {
          "internalType": "address",
          "name": "recipient",
          "type": "address"
        },
        {
          "internalType": "uint256",
          "name": "amount",
          "type": "uint256"
        }
      ],
      "name": "transfer",
      "outputs": [
        {
          "internalType": "bool",
          "name": "",
          "type": "bool"
        }
      ],
      "stateMutability": "nonpayable",
      "type": "function"
    },
    {
      "inputs": [
        {
          "internalType": "address",
          "name": "sender",
          "type": "address"
        },
        {
          "internalType": "address",
          "name": "recipient",
          "type": "address"
        },
        {
          "internalType": "uint256",
          "name": "amount",
          "type": "uint256"
        }
      ],
      "name": "transferFrom",
      "outputs": [
        {
          "internalType": "bool",
          "name": "",
          "type": "bool"
        }
      ],
      "stateMutability": "nonpayable",
      "type": "function"
    },
    {
      "inputs": [
        {
          "internalType": "address",
          "name": "newOwner",
          "type": "address"
        }
      ],
      "name": "transferOwnership",
      "outputs": [],
      "stateMutability": "nonpayable",
      "type": "function"
    },
    {
      "inputs": [],
      "name": "unpause",
      "outputs": [],
      "stateMutability": "nonpayable",
      "type": "function"
    }
  ],
  "bytecode": "0x60806040523480156200001157600080fd5b506040518060400160405280600a8152602001694d657461537472696b6560b01b815250604051806040016040528060038152602001624d545360e81b8152508160039080519060200190620000699291906200027c565b5080516200007f9060049060208401906200027c565b50506005805460ff19169055506200009733620000c6565b620000c033620000aa6012600a62000386565b620000ba906321ad374062000454565b62000120565b620004c9565b600580546001600160a01b03838116610100818102610100600160a81b031985161790945560405193909204169182907f8be0079c531659141344cd1fd0a4f28419497f9722a3daafe3b4186f6b6457e090600090a35050565b6001600160a01b0382166200017c5760405162461bcd60e51b815260206004820152601f60248201527f45524332303a206d696e7420746f20746865207a65726f20616464726573730060448201526064015b60405180910390fd5b6200018a6000838362000217565b80600260008282546200019e919062000322565b90915550506001600160a01b03821660009081526020819052604081208054839290620001cd90849062000322565b90915550506040518181526001600160a01b038316906000907fddf252ad1be2c89b69c2b068fc378daa952ba7f163c4a11628f55a4df523b3ef9060200160405180910390a35050565b60055460ff16156200025f5760405162461bcd60e51b815260206004820152601060248201526f14185d5cd8589b194e881c185d5cd95960821b604482015260640162000173565b620002778383836200027760201b620006a21760201c565b505050565b8280546200028a9062000476565b90600052602060002090601f016020900481019282620002ae5760008555620002f9565b82601f10620002c957805160ff1916838001178555620002f9565b82800160010185558215620002f9579182015b82811115620002f9578251825591602001919060010190620002dc565b50620003079291506200030b565b5090565b5b808211156200030757600081556001016200030c565b60008219821115620003385762000338620004b3565b500190565b600181815b808511156200037e578160001904821115620003625762000362620004b3565b808516156200037057918102915b93841c939080029062000342565b509250929050565b60006200039760ff8416836200039e565b9392505050565b600082620003af575060016200044e565b81620003be575060006200044e565b8160018114620003d75760028114620003e25762000402565b60019150506200044e565b60ff841115620003f657620003f6620004b3565b50506001821b6200044e565b5060208310610133831016604e8410600b841016171562000427575081810a6200044e565b6200043383836200033d565b80600019048211156200044a576200044a620004b3565b0290505b92915050565b6000816000190483118215151615620004715762000471620004b3565b500290565b600181811c908216806200048b57607f821691505b60208210811415620004ad57634e487b7160e01b600052602260045260246000fd5b50919050565b634e487b7160e01b600052601160045260246000fd5b61121480620004d96000396000f3fe608060405234801561001057600080fd5b50600436106101735760003560e01c80635f48f393116100de5780638456cb5911610097578063a457c2d711610071578063a457c2d7146102fe578063a9059cbb14610311578063dd62ed3e14610324578063f2fde38b1461035d57600080fd5b80638456cb59146102d85780638da5cb5b146102e057806395d89b41146102f657600080fd5b80635f48f3931461026f5780636250cf0c1461027857806370a082311461028b578063715018a6146102b457806378e97925146102bc57806379cc6790146102c557600080fd5b80633197cbb6116101305780633197cbb61461021857806339509351146102215780633f4ba83a1461023457806340c10f191461023e57806342966c68146102515780635c975abb1461026457600080fd5b806306fdde0314610178578063095ea7b314610196578063120f2eda146101b957806318160ddd146101e457806323b872dd146101f6578063313ce56714610209575b600080fd5b610180610370565b60405161018d91906110d6565b60405180910390f35b6101a96101a436600461105d565b610402565b604051901515815260200161018d565b6009546101cc906001600160a01b031681565b6040516001600160a01b03909116815260200161018d565b6002545b60405190815260200161018d565b6101a9610204366004611022565b610418565b6040516012815260200161018d565b6101e860075481565b6101a961022f36600461105d565b6104c7565b61023c610503565b005b61023c61024c36600461105d565b61053d565b61023c61025f3660046110be565b61057b565b60055460ff166101a9565b6101e860085481565b61023c610286366004611086565b610588565b6101e8610299366004610fcf565b6001600160a01b031660009081526020819052604090205490565b61023c6105e7565b6101e860065481565b61023c6102d336600461105d565b610621565b61023c6106a7565b60055461010090046001600160a01b03166101cc565b6101806106df565b6101a961030c36600461105d565b6106ee565b6101a961031f36600461105d565b610787565b6101e8610332366004610ff0565b6001600160a01b03918216600090815260016020908152604080832093909416825291909152205490565b61023c61036b366004610fcf565b610824565b60606003805461037f9061118d565b80601f01602080910402602001604051908101604052809291908181526020018280546103ab9061118d565b80156103f85780601f106103cd576101008083540402835291602001916103f8565b820191906000526020600020905b8154815290600101906020018083116103db57829003601f168201915b5050505050905090565b600061040f3384846108c2565b50600192915050565b60006104258484846109e6565b6001600160a01b0384166000908152600160209081526040808320338452909152902054828110156104af5760405162461bcd60e51b815260206004820152602860248201527f45524332303a207472616e7366657220616d6f756e74206578636565647320616044820152676c6c6f77616e636560c01b60648201526084015b60405180910390fd5b6104bc85338584036108c2565b506001949350505050565b3360008181526001602090815260408083206001600160a01b0387168452909152812054909161040f9185906104fe90869061115e565b6108c2565b6005546001600160a01b036101009091041633146105335760405162461bcd60e51b81526004016104a690611129565b61053b610bc0565b565b6005546001600160a01b0361010090910416331461056d5760405162461bcd60e51b81526004016104a690611129565b6105778282610c53565b5050565b6105853382610d3e565b50565b6005546001600160a01b036101009091041633146105b85760405162461bcd60e51b81526004016104a690611129565b600980546001600160a01b0319166001600160a01b039590951694909417909355600891909155600655600755565b6005546001600160a01b036101009091041633146106175760405162461bcd60e51b81526004016104a690611129565b61053b6000610e98565b600061062d8333610332565b90508181101561068b5760405162461bcd60e51b8152602060048201526024808201527f45524332303a206275726e20616d6f756e74206578636565647320616c6c6f77604482015263616e636560e01b60648201526084016104a6565b61069883338484036108c2565b6106a28383610d3e565b505050565b6005546001600160a01b036101009091041633146106d75760405162461bcd60e51b81526004016104a690611129565b61053b610ef2565b60606004805461037f9061118d565b3360009081526001602090815260408083206001600160a01b0386168452909152812054828110156107705760405162461bcd60e51b815260206004820152602560248201527f45524332303a2064656372656173656420616c6c6f77616e63652062656c6f77604482015264207a65726f60d81b60648201526084016104a6565b61077d33858584036108c2565b5060019392505050565b6009546000906001600160a01b0316331480156107a657506006544210155b80156107b457506007544211155b15610819576008548211156108195760405162461bcd60e51b815260206004820152602560248201527f4d657461537472696b653a206d6178416d6f756e7420657863656564206c697360448201526474696e672160d81b60648201526084016104a6565b61040f3384846109e6565b6005546001600160a01b036101009091041633146108545760405162461bcd60e51b81526004016104a690611129565b6001600160a01b0381166108b95760405162461bcd60e51b815260206004820152602660248201527f4f776e61626c653a206e6577206f776e657220697320746865207a65726f206160448201526564647265737360d01b60648201526084016104a6565b61058581610e98565b6001600160a01b0383166109245760405162461bcd60e51b8152602060048201526024808201527f45524332303a20617070726f76652066726f6d20746865207a65726f206164646044820152637265737360e01b60648201526084016104a6565b6001600160a01b0382166109855760405162461bcd60e51b815260206004820152602260248201527f45524332303a20617070726f766520746f20746865207a65726f206164647265604482015261737360f01b60648201526084016104a6565b6001600160a01b0383811660008181526001602090815260408083209487168084529482529182902085905590518481527f8c5be1e5ebec7d5bd14f71427d1e84f3dd0314c0f7b2291e5b200ac8c7c3b925910160405180910390a3505050565b6001600160a01b038316610a4a5760405162461bcd60e51b815260206004820152602560248201527f45524332303a207472616e736665722066726f6d20746865207a65726f206164604482015264647265737360d81b60648201526084016104a6565b6001600160a01b038216610aac5760405162461bcd60e51b815260206004820152602360248201527f45524332303a207472616e7366657220746f20746865207a65726f206164647260448201526265737360e81b60648201526084016104a6565b610ab7838383610f6d565b6001600160a01b03831660009081526020819052604090205481811015610b2f5760405162461bcd60e51b815260206004820152602660248201527f45524332303a207472616e7366657220616d6f756e7420657863656564732062604482015265616c616e636560d01b60648201526084016104a6565b6001600160a01b03808516600090815260208190526040808220858503905591851681529081208054849290610b6690849061115e565b92505081905550826001600160a01b0316846001600160a01b03167fddf252ad1be2c89b69c2b068fc378daa952ba7f163c4a11628f55a4df523b3ef84604051610bb291815260200190565b60405180910390a350505050565b60055460ff16610c095760405162461bcd60e51b815260206004820152601460248201527314185d5cd8589b194e881b9bdd081c185d5cd95960621b60448201526064016104a6565b6005805460ff191690557f5db9ee0a495bf2e6ff9c91a7834c1ba4fdd244a5e8aa4e537bd38aeae4b073aa335b6040516001600160a01b03909116815260200160405180910390a1565b6001600160a01b038216610ca95760405162461bcd60e51b815260206004820152601f60248201527f45524332303a206d696e7420746f20746865207a65726f20616464726573730060448201526064016104a6565b610cb560008383610f6d565b8060026000828254610cc7919061115e565b90915550506001600160a01b03821660009081526020819052604081208054839290610cf490849061115e565b90915550506040518181526001600160a01b038316906000907fddf252ad1be2c89b69c2b068fc378daa952ba7f163c4a11628f55a4df523b3ef9060200160405180910390a35050565b6001600160a01b038216610d9e5760405162461bcd60e51b815260206004820152602160248201527f45524332303a206275726e2066726f6d20746865207a65726f206164647265736044820152607360f81b60648201526084016104a6565b610daa82600083610f6d565b6001600160a01b03821660009081526020819052604090205481811015610e1e5760405162461bcd60e51b815260206004820152602260248201527f45524332303a206275726e20616d6f756e7420657863656564732062616c616e604482015261636560f01b60648201526084016104a6565b6001600160a01b0383166000908152602081905260408120838303905560028054849290610e4d908490611176565b90915550506040518281526000906001600160a01b038516907fddf252ad1be2c89b69c2b068fc378daa952ba7f163c4a11628f55a4df523b3ef9060200160405180910390a3505050565b600580546001600160a01b03838116610100818102610100600160a81b031985161790945560405193909204169182907f8be0079c531659141344cd1fd0a4f28419497f9722a3daafe3b4186f6b6457e090600090a35050565b60055460ff1615610f385760405162461bcd60e51b815260206004820152601060248201526f14185d5cd8589b194e881c185d5cd95960821b60448201526064016104a6565b6005805460ff191660011790557f62e78cea01bee320cd4e420270b5ea74000d11b0c9f74754ebdbfc544b05a258610c363390565b60055460ff16156106a25760405162461bcd60e51b815260206004820152601060248201526f14185d5cd8589b194e881c185d5cd95960821b60448201526064016104a6565b80356001600160a01b0381168114610fca57600080fd5b919050565b600060208284031215610fe0578081fd5b610fe982610fb3565b9392505050565b60008060408385031215611002578081fd5b61100b83610fb3565b915061101960208401610fb3565b90509250929050565b600080600060608486031215611036578081fd5b61103f84610fb3565b925061104d60208501610fb3565b9150604084013590509250925092565b6000806040838503121561106f578182fd5b61107883610fb3565b946020939093013593505050565b6000806000806080858703121561109b578081fd5b6110a485610fb3565b966020860135965060408601359560600135945092505050565b6000602082840312156110cf578081fd5b5035919050565b6000602080835283518082850152825b81811015611102578581018301518582016040015282016110e6565b818111156111135783604083870101525b50601f01601f1916929092016040019392505050565b6020808252818101527f4f776e61626c653a2063616c6c6572206973206e6f7420746865206f776e6572604082015260600190565b60008219821115611171576111716111c8565b500190565b600082821015611188576111886111c8565b500390565b600181811c908216806111a157607f821691505b602082108114156111c257634e487b7160e01b600052602260045260246000fd5b50919050565b634e487b7160e01b600052601160045260246000fdfea2646970667358221220b46dab92f257da4008657eb8ba0652fdb8d3ee431cc1793367ce5b0cb0105b8c64736f6c63430008040033",
  "linkReferences": {},
  "deployedLinkReferences": {}
}