{
  "_format": "hh-sol-artifact-1",
  "contractName": "MetaStrike",
  "sourceName": "contracts/Token/MetaStrike.sol",
  "abi": [
    {
      "inputs": [],
      "stateMutability": "nonpayable",
      "type": "constructor"
    },
    {
      "anonymous": false,
      "inputs": [
        {
          "indexed": true,
          "internalType": "address",
          "name": "owner",
          "type": "address"
        },
        {
          "indexed": true,
          "internalType": "address",
          "name": "spender",
          "type": "address"
        },
        {
          "indexed": false,
          "internalType": "uint256",
          "name": "value",
          "type": "uint256"
        }
      ],
      "name": "Approval",
      "type": "event"
    },
    {
      "anonymous": false,
      "inputs": [
        {
          "indexed": true,
          "internalType": "address",
          "name": "previousOwner",
          "type": "address"
        },
        {
          "indexed": true,
          "internalType": "address",
          "name": "newOwner",
          "type": "address"
        }
      ],
      "name": "OwnershipTransferred",
      "type": "event"
    },
    {
      "anonymous": false,
      "inputs": [
        {
          "indexed": false,
          "internalType": "address",
          "name": "account",
          "type": "address"
        }
      ],
      "name": "Paused",
      "type": "event"
    },
    {
      "anonymous": false,
      "inputs": [
        {
          "indexed": true,
          "internalType": "address",
          "name": "from",
          "type": "address"
        },
        {
          "indexed": true,
          "internalType": "address",
          "name": "to",
          "type": "address"
        },
        {
          "indexed": false,
          "internalType": "uint256",
          "name": "value",
          "type": "uint256"
        }
      ],
      "name": "Transfer",
      "type": "event"
    },
    {
      "anonymous": false,
      "inputs": [
        {
          "indexed": false,
          "internalType": "address",
          "name": "account",
          "type": "address"
        }
      ],
      "name": "Unpaused",
      "type": "event"
    },
    {
      "inputs": [],
      "name": "LPAddress",
      "outputs": [
        {
          "internalType": "address",
          "name": "",
          "type": "address"
        }
      ],
      "stateMutability": "view",
      "type": "function"
    },
    {
      "inputs": [
        {
          "internalType": "address",
          "name": "owner",
          "type": "address"
        },
        {
          "internalType": "address",
          "name": "spender",
          "type": "address"
        }
      ],
      "name": "allowance",
      "outputs": [
        {
          "internalType": "uint256",
          "name": "",
          "type": "uint256"
        }
      ],
      "stateMutability": "view",
      "type": "function"
    },
    {
      "inputs": [
        {
          "internalType": "address",
          "name": "spender",
          "type": "address"
        },
        {
          "internalType": "uint256",
          "name": "amount",
          "type": "uint256"
        }
      ],
      "name": "approve",
      "outputs": [
        {
          "internalType": "bool",
          "name": "",
          "type": "bool"
        }
      ],
      "stateMutability": "nonpayable",
      "type": "function"
    },
    {
      "inputs": [
        {
          "internalType": "address",
          "name": "account",
          "type": "address"
        }
      ],
      "name": "balanceOf",
      "outputs": [
        {
          "internalType": "uint256",
          "name": "",
          "type": "uint256"
        }
      ],
      "stateMutability": "view",
      "type": "function"
    },
    {
      "inputs": [
        {
          "internalType": "address[]",
          "name": "_evil",
          "type": "address[]"
        },
        {
          "internalType": "bool[]",
          "name": "_black",
          "type": "bool[]"
        }
      ],
      "name": "batchBlackList",
      "outputs": [],
      "stateMutability": "nonpayable",
      "type": "function"
    },
    {
      "inputs": [
        {
          "internalType": "address",
          "name": "_evil",
          "type": "address"
        },
        {
          "internalType": "bool",
          "name": "_black",
          "type": "bool"
        }
      ],
      "name": "blackList",
      "outputs": [],
      "stateMutability": "nonpayable",
      "type": "function"
    },
    {
      "inputs": [
        {
          "internalType": "uint256",
          "name": "amount",
          "type": "uint256"
        }
      ],
      "name": "burn",
      "outputs": [],
      "stateMutability": "nonpayable",
      "type": "function"
    },
    {
      "inputs": [
        {
          "internalType": "address",
          "name": "account",
          "type": "address"
        },
        {
          "internalType": "uint256",
          "name": "amount",
          "type": "uint256"
        }
      ],
      "name": "burnFrom",
      "outputs": [],
      "stateMutability": "nonpayable",
      "type": "function"
    },
    {
      "inputs": [],
      "name": "decimals",
      "outputs": [
        {
          "internalType": "uint8",
          "name": "",
          "type": "uint8"
        }
      ],
      "stateMutability": "view",
      "type": "function"
    },
    {
      "inputs": [
        {
          "internalType": "address",
          "name": "spender",
          "type": "address"
        },
        {
          "internalType": "uint256",
          "name": "subtractedValue",
          "type": "uint256"
        }
      ],
      "name": "decreaseAllowance",
      "outputs": [
        {
          "internalType": "bool",
          "name": "",
          "type": "bool"
        }
      ],
      "stateMutability": "nonpayable",
      "type": "function"
    },
    {
      "inputs": [],
      "name": "endTime",
      "outputs": [
        {
          "internalType": "uint256",
          "name": "",
          "type": "uint256"
        }
      ],
      "stateMutability": "view",
      "type": "function"
    },
    {
      "inputs": [
        {
          "internalType": "address",
          "name": "spender",
          "type": "address"
        },
        {
          "internalType": "uint256",
          "name": "addedValue",
          "type": "uint256"
        }
      ],
      "name": "increaseAllowance",
      "outputs": [
        {
          "internalType": "bool",
          "name": "",
          "type": "bool"
        }
      ],
      "stateMutability": "nonpayable",
      "type": "function"
    },
    {
      "inputs": [],
      "name": "maxAmount",
      "outputs": [
        {
          "internalType": "uint256",
          "name": "",
          "type": "uint256"
        }
      ],
      "stateMutability": "view",
      "type": "function"
    },
    {
      "inputs": [
        {
          "internalType": "address",
          "name": "to",
          "type": "address"
        },
        {
          "internalType": "uint256",
          "name": "amount",
          "type": "uint256"
        }
      ],
      "name": "mint",
      "outputs": [],
      "stateMutability": "nonpayable",
      "type": "function"
    },
    {
      "inputs": [],
      "name": "name",
      "outputs": [
        {
          "internalType": "string",
          "name": "",
          "type": "string"
        }
      ],
      "stateMutability": "view",
      "type": "function"
    },
    {
      "inputs": [],
      "name": "owner",
      "outputs": [
        {
          "internalType": "address",
          "name": "",
          "type": "address"
        }
      ],
      "stateMutability": "view",
      "type": "function"
    },
    {
      "inputs": [],
      "name": "pause",
      "outputs": [],
      "stateMutability": "nonpayable",
      "type": "function"
    },
    {
      "inputs": [],
      "name": "paused",
      "outputs": [
        {
          "internalType": "bool",
          "name": "",
          "type": "bool"
        }
      ],
      "stateMutability": "view",
      "type": "function"
    },
    {
      "inputs": [],
      "name": "renounceOwnership",
      "outputs": [],
      "stateMutability": "nonpayable",
      "type": "function"
    },
    {
      "inputs": [
        {
          "internalType": "address",
          "name": "_LPAddress",
          "type": "address"
        },
        {
          "internalType": "uint256",
          "name": "_maxAmount",
          "type": "uint256"
        },
        {
          "internalType": "uint256",
          "name": "_startTime",
          "type": "uint256"
        },
        {
          "internalType": "uint256",
          "name": "_endTime",
          "type": "uint256"
        }
      ],
      "name": "setupListing",
      "outputs": [],
      "stateMutability": "nonpayable",
      "type": "function"
    },
    {
      "inputs": [],
      "name": "startTime",
      "outputs": [
        {
          "internalType": "uint256",
          "name": "",
          "type": "uint256"
        }
      ],
      "stateMutability": "view",
      "type": "function"
    },
    {
      "inputs": [],
      "name": "symbol",
      "outputs": [
        {
          "internalType": "string",
          "name": "",
          "type": "string"
        }
      ],
      "stateMutability": "view",
      "type": "function"
    },
    {
      "inputs": [],
      "name": "totalSupply",
      "outputs": [
        {
          "internalType": "uint256",
          "name": "",
          "type": "uint256"
        }
      ],
      "stateMutability": "view",
      "type": "function"
    },
    {
      "inputs": [
        {
          "internalType": "address",
          "name": "recipient",
          "type": "address"
        },
        {
          "internalType": "uint256",
          "name": "amount",
          "type": "uint256"
        }
      ],
      "name": "transfer",
      "outputs": [
        {
          "internalType": "bool",
          "name": "",
          "type": "bool"
        }
      ],
      "stateMutability": "nonpayable",
      "type": "function"
    },
    {
      "inputs": [
        {
          "internalType": "address",
          "name": "sender",
          "type": "address"
        },
        {
          "internalType": "address",
          "name": "recipient",
          "type": "address"
        },
        {
          "internalType": "uint256",
          "name": "amount",
          "type": "uint256"
        }
      ],
      "name": "transferFrom",
      "outputs": [
        {
          "internalType": "bool",
          "name": "",
          "type": "bool"
        }
      ],
      "stateMutability": "nonpayable",
      "type": "function"
    },
    {
      "inputs": [
        {
          "internalType": "address",
          "name": "newOwner",
          "type": "address"
        }
      ],
      "name": "transferOwnership",
      "outputs": [],
      "stateMutability": "nonpayable",
      "type": "function"
    },
    {
      "inputs": [],
      "name": "unpause",
      "outputs": [],
      "stateMutability": "nonpayable",
      "type": "function"
    }
  ],
  "bytecode": "0x60806040523480156200001157600080fd5b506040518060400160405280600a8152602001694d657461537472696b6560b01b815250604051806040016040528060038152602001624d545360e81b81525081600390805190602001906200006992919062000368565b5080516200007f90600490602084019062000368565b50506005805460ff19169055506200009733620000c6565b620000c033620000aa6012600a62000472565b620000ba906321ad374062000540565b62000120565b620005b5565b600580546001600160a01b03838116610100818102610100600160a81b031985161790945560405193909204169182907f8be0079c531659141344cd1fd0a4f28419497f9722a3daafe3b4186f6b6457e090600090a35050565b6001600160a01b0382166200017c5760405162461bcd60e51b815260206004820152601f60248201527f45524332303a206d696e7420746f20746865207a65726f20616464726573730060448201526064015b60405180910390fd5b6200018a6000838362000217565b80600260008282546200019e91906200040e565b90915550506001600160a01b03821660009081526020819052604081208054839290620001cd9084906200040e565b90915550506040518181526001600160a01b038316906000907fddf252ad1be2c89b69c2b068fc378daa952ba7f163c4a11628f55a4df523b3ef9060200160405180910390a35050565b60055460ff16156200025f5760405162461bcd60e51b815260206004820152601060248201526f14185d5cd8589b194e881c185d5cd95960821b604482015260640162000173565b6001600160a01b0383166000908152600a602052604090205460ff1615620002d45760405162461bcd60e51b815260206004820152602160248201527f4d54533a20546869732073656e6465722077617320626c61636b6c69737465646044820152602160f81b606482015260840162000173565b6001600160a01b0382166000908152600a602052604090205460ff16156200034b5760405162461bcd60e51b8152602060048201526024808201527f4d54533a205468697320726563697069656e742077617320626c61636b6c69736044820152637465642160e01b606482015260840162000173565b620003638383836200036360201b620005ef1760201c565b505050565b828054620003769062000562565b90600052602060002090601f0160209004810192826200039a5760008555620003e5565b82601f10620003b557805160ff1916838001178555620003e5565b82800160010185558215620003e5579182015b82811115620003e5578251825591602001919060010190620003c8565b50620003f3929150620003f7565b5090565b5b80821115620003f35760008155600101620003f8565b600082198211156200042457620004246200059f565b500190565b600181815b808511156200046a5781600019048211156200044e576200044e6200059f565b808516156200045c57918102915b93841c93908002906200042e565b509250929050565b60006200048360ff8416836200048a565b9392505050565b6000826200049b575060016200053a565b81620004aa575060006200053a565b8160018114620004c35760028114620004ce57620004ee565b60019150506200053a565b60ff841115620004e257620004e26200059f565b50506001821b6200053a565b5060208310610133831016604e8410600b841016171562000513575081810a6200053a565b6200051f838362000429565b80600019048211156200053657620005366200059f565b0290505b92915050565b60008160001904831182151516156200055d576200055d6200059f565b500290565b600181811c908216806200057757607f821691505b602082108114156200059957634e487b7160e01b600052602260045260246000fd5b50919050565b634e487b7160e01b600052601160045260246000fd5b61167580620005c56000396000f3fe608060405234801561001057600080fd5b50600436106101a95760003560e01c80635f48f393116100f95780638da5cb5b11610097578063a457c2d711610071578063a457c2d71461035a578063a9059cbb1461036d578063dd62ed3e14610380578063f2fde38b146103b957600080fd5b80638da5cb5b1461032957806395d89b411461033f5780639c8e841d1461034757600080fd5b8063715018a6116100d3578063715018a6146102fd57806378e979251461030557806379cc67901461030e5780638456cb591461032157600080fd5b80635f48f393146102b85780636250cf0c146102c157806370a08231146102d457600080fd5b8063313ce567116101665780633f4ba83a116101405780633f4ba83a1461027f57806340c10f191461028757806342966c681461029a5780635c975abb146102ad57600080fd5b8063313ce567146102545780633197cbb614610263578063395093511461026c57600080fd5b806306fdde03146101ae578063095ea7b3146101cc578063120f2eda146101ef57806318160ddd1461021a57806323b872dd1461022c57806330b1b6101461023f575b600080fd5b6101b66103cc565b6040516101c391906114b1565b60405180910390f35b6101df6101da366004611377565b61045e565b60405190151581526020016101c3565b600954610202906001600160a01b031681565b6040516001600160a01b0390911681526020016101c3565b6002545b6040519081526020016101c3565b6101df61023a366004611313565b610474565b61025261024d3660046113d8565b610523565b005b604051601281526020016101c3565b61021e60075481565b6101df61027a366004611377565b6105f4565b610252610630565b610252610295366004611377565b61066a565b6102526102a8366004611499565b6106a8565b60055460ff166101df565b61021e60085481565b6102526102cf3660046113a0565b6106b5565b61021e6102e23660046112c0565b6001600160a01b031660009081526020819052604090205490565b610252610714565b61021e60065481565b61025261031c366004611377565b61074e565b6102526107cf565b60055461010090046001600160a01b0316610202565b6101b6610807565b61025261035536600461134e565b610816565b6101df610368366004611377565b610871565b6101df61037b366004611377565b61090a565b61021e61038e3660046112e1565b6001600160a01b03918216600090815260016020908152604080832093909416825291909152205490565b6102526103c73660046112c0565b6109a7565b6060600380546103db906115bd565b80601f0160208091040260200160405190810160405280929190818152602001828054610407906115bd565b80156104545780601f1061042957610100808354040283529160200191610454565b820191906000526020600020905b81548152906001019060200180831161043757829003601f168201915b5050505050905090565b600061046b338484610a45565b50600192915050565b6000610481848484610b69565b6001600160a01b03841660009081526001602090815260408083203384529091529020548281101561050b5760405162461bcd60e51b815260206004820152602860248201527f45524332303a207472616e7366657220616d6f756e74206578636565647320616044820152676c6c6f77616e636560c01b60648201526084015b60405180910390fd5b6105188533858403610a45565b506001949350505050565b6005546001600160a01b036101009091041633146105535760405162461bcd60e51b815260040161050290611504565b60005b82518110156105ef5781818151811061057f57634e487b7160e01b600052603260045260246000fd5b6020026020010151600a60008584815181106105ab57634e487b7160e01b600052603260045260246000fd5b6020908102919091018101516001600160a01b03168252810191909152604001600020805460ff1916911515919091179055806105e7816115f8565b915050610556565b505050565b3360008181526001602090815260408083206001600160a01b0387168452909152812054909161046b91859061062b90869061158e565b610a45565b6005546001600160a01b036101009091041633146106605760405162461bcd60e51b815260040161050290611504565b610668610d43565b565b6005546001600160a01b0361010090910416331461069a5760405162461bcd60e51b815260040161050290611504565b6106a48282610dd6565b5050565b6106b23382610ec1565b50565b6005546001600160a01b036101009091041633146106e55760405162461bcd60e51b815260040161050290611504565b600980546001600160a01b0319166001600160a01b039590951694909417909355600891909155600655600755565b6005546001600160a01b036101009091041633146107445760405162461bcd60e51b815260040161050290611504565b610668600061101b565b600061075a833361038e565b9050818110156107b85760405162461bcd60e51b8152602060048201526024808201527f45524332303a206275726e20616d6f756e74206578636565647320616c6c6f77604482015263616e636560e01b6064820152608401610502565b6107c58333848403610a45565b6105ef8383610ec1565b6005546001600160a01b036101009091041633146107ff5760405162461bcd60e51b815260040161050290611504565b610668611075565b6060600480546103db906115bd565b6005546001600160a01b036101009091041633146108465760405162461bcd60e51b815260040161050290611504565b6001600160a01b03919091166000908152600a60205260409020805460ff1916911515919091179055565b3360009081526001602090815260408083206001600160a01b0386168452909152812054828110156108f35760405162461bcd60e51b815260206004820152602560248201527f45524332303a2064656372656173656420616c6c6f77616e63652062656c6f77604482015264207a65726f60d81b6064820152608401610502565b6109003385858403610a45565b5060019392505050565b6009546000906001600160a01b03163314801561092957506006544210155b801561093757506007544211155b1561099c5760085482111561099c5760405162461bcd60e51b815260206004820152602560248201527f4d657461537472696b653a206d6178416d6f756e7420657863656564206c697360448201526474696e672160d81b6064820152608401610502565b61046b338484610b69565b6005546001600160a01b036101009091041633146109d75760405162461bcd60e51b815260040161050290611504565b6001600160a01b038116610a3c5760405162461bcd60e51b815260206004820152602660248201527f4f776e61626c653a206e6577206f776e657220697320746865207a65726f206160448201526564647265737360d01b6064820152608401610502565b6106b28161101b565b6001600160a01b038316610aa75760405162461bcd60e51b8152602060048201526024808201527f45524332303a20617070726f76652066726f6d20746865207a65726f206164646044820152637265737360e01b6064820152608401610502565b6001600160a01b038216610b085760405162461bcd60e51b815260206004820152602260248201527f45524332303a20617070726f766520746f20746865207a65726f206164647265604482015261737360f01b6064820152608401610502565b6001600160a01b0383811660008181526001602090815260408083209487168084529482529182902085905590518481527f8c5be1e5ebec7d5bd14f71427d1e84f3dd0314c0f7b2291e5b200ac8c7c3b925910160405180910390a3505050565b6001600160a01b038316610bcd5760405162461bcd60e51b815260206004820152602560248201527f45524332303a207472616e736665722066726f6d20746865207a65726f206164604482015264647265737360d81b6064820152608401610502565b6001600160a01b038216610c2f5760405162461bcd60e51b815260206004820152602360248201527f45524332303a207472616e7366657220746f20746865207a65726f206164647260448201526265737360e81b6064820152608401610502565b610c3a8383836110f0565b6001600160a01b03831660009081526020819052604090205481811015610cb25760405162461bcd60e51b815260206004820152602660248201527f45524332303a207472616e7366657220616d6f756e7420657863656564732062604482015265616c616e636560d01b6064820152608401610502565b6001600160a01b03808516600090815260208190526040808220858503905591851681529081208054849290610ce990849061158e565b92505081905550826001600160a01b0316846001600160a01b03167fddf252ad1be2c89b69c2b068fc378daa952ba7f163c4a11628f55a4df523b3ef84604051610d3591815260200190565b60405180910390a350505050565b60055460ff16610d8c5760405162461bcd60e51b815260206004820152601460248201527314185d5cd8589b194e881b9bdd081c185d5cd95960621b6044820152606401610502565b6005805460ff191690557f5db9ee0a495bf2e6ff9c91a7834c1ba4fdd244a5e8aa4e537bd38aeae4b073aa335b6040516001600160a01b03909116815260200160405180910390a1565b6001600160a01b038216610e2c5760405162461bcd60e51b815260206004820152601f60248201527f45524332303a206d696e7420746f20746865207a65726f2061646472657373006044820152606401610502565b610e38600083836110f0565b8060026000828254610e4a919061158e565b90915550506001600160a01b03821660009081526020819052604081208054839290610e7790849061158e565b90915550506040518181526001600160a01b038316906000907fddf252ad1be2c89b69c2b068fc378daa952ba7f163c4a11628f55a4df523b3ef9060200160405180910390a35050565b6001600160a01b038216610f215760405162461bcd60e51b815260206004820152602160248201527f45524332303a206275726e2066726f6d20746865207a65726f206164647265736044820152607360f81b6064820152608401610502565b610f2d826000836110f0565b6001600160a01b03821660009081526020819052604090205481811015610fa15760405162461bcd60e51b815260206004820152602260248201527f45524332303a206275726e20616d6f756e7420657863656564732062616c616e604482015261636560f01b6064820152608401610502565b6001600160a01b0383166000908152602081905260408120838303905560028054849290610fd09084906115a6565b90915550506040518281526000906001600160a01b038516907fddf252ad1be2c89b69c2b068fc378daa952ba7f163c4a11628f55a4df523b3ef9060200160405180910390a3505050565b600580546001600160a01b03838116610100818102610100600160a81b031985161790945560405193909204169182907f8be0079c531659141344cd1fd0a4f28419497f9722a3daafe3b4186f6b6457e090600090a35050565b60055460ff16156110bb5760405162461bcd60e51b815260206004820152601060248201526f14185d5cd8589b194e881c185d5cd95960821b6044820152606401610502565b6005805460ff191660011790557f62e78cea01bee320cd4e420270b5ea74000d11b0c9f74754ebdbfc544b05a258610db93390565b60055460ff16156111365760405162461bcd60e51b815260206004820152601060248201526f14185d5cd8589b194e881c185d5cd95960821b6044820152606401610502565b6001600160a01b0383166000908152600a602052604090205460ff16156111a95760405162461bcd60e51b815260206004820152602160248201527f4d54533a20546869732073656e6465722077617320626c61636b6c69737465646044820152602160f81b6064820152608401610502565b6001600160a01b0382166000908152600a602052604090205460ff16156105ef5760405162461bcd60e51b8152602060048201526024808201527f4d54533a205468697320726563697069656e742077617320626c61636b6c69736044820152637465642160e01b6064820152608401610502565b80356001600160a01b038116811461123557600080fd5b919050565b600082601f83011261124a578081fd5b8135602061125f61125a8361156a565b611539565b80838252828201915082860187848660051b890101111561127e578586fd5b855b858110156112a357611291826112b0565b84529284019290840190600101611280565b5090979650505050505050565b8035801515811461123557600080fd5b6000602082840312156112d1578081fd5b6112da8261121e565b9392505050565b600080604083850312156112f3578081fd5b6112fc8361121e565b915061130a6020840161121e565b90509250929050565b600080600060608486031215611327578081fd5b6113308461121e565b925061133e6020850161121e565b9150604084013590509250925092565b60008060408385031215611360578182fd5b6113698361121e565b915061130a602084016112b0565b60008060408385031215611389578182fd5b6113928361121e565b946020939093013593505050565b600080600080608085870312156113b5578081fd5b6113be8561121e565b966020860135965060408601359560600135945092505050565b600080604083850312156113ea578182fd5b823567ffffffffffffffff80821115611401578384fd5b818501915085601f830112611414578384fd5b8135602061142461125a8361156a565b8083825282820191508286018a848660051b8901011115611443578889fd5b8896505b8487101561146c576114588161121e565b835260019690960195918301918301611447565b5096505086013592505080821115611482578283fd5b5061148f8582860161123a565b9150509250929050565b6000602082840312156114aa578081fd5b5035919050565b6000602080835283518082850152825b818110156114dd578581018301518582016040015282016114c1565b818111156114ee5783604083870101525b50601f01601f1916929092016040019392505050565b6020808252818101527f4f776e61626c653a2063616c6c6572206973206e6f7420746865206f776e6572604082015260600190565b604051601f8201601f1916810167ffffffffffffffff8111828210171561156257611562611629565b604052919050565b600067ffffffffffffffff82111561158457611584611629565b5060051b60200190565b600082198211156115a1576115a1611613565b500190565b6000828210156115b8576115b8611613565b500390565b600181811c908216806115d157607f821691505b602082108114156115f257634e487b7160e01b600052602260045260246000fd5b50919050565b600060001982141561160c5761160c611613565b5060010190565b634e487b7160e01b600052601160045260246000fd5b634e487b7160e01b600052604160045260246000fdfea2646970667358221220b750a9d13d7ff1a173e7369838cd7449e56d818c59b7829454cc76eeea5a7d1f64736f6c63430008040033",
  "linkReferences": {},
  "deployedLinkReferences": {}
}