{
  "_format": "hh-sol-artifact-1",
  "contractName": "MetaStrike",
  "sourceName": "contracts/Token/MetaStrike.sol",
  "abi": [
    {
      "inputs": [],
      "stateMutability": "nonpayable",
      "type": "constructor"
    },
    {
      "anonymous": false,
      "inputs": [
        {
          "indexed": true,
          "internalType": "address",
          "name": "owner",
          "type": "address"
        },
        {
          "indexed": true,
          "internalType": "address",
          "name": "spender",
          "type": "address"
        },
        {
          "indexed": false,
          "internalType": "uint256",
          "name": "value",
          "type": "uint256"
        }
      ],
      "name": "Approval",
      "type": "event"
    },
    {
      "anonymous": false,
      "inputs": [
        {
          "indexed": true,
          "internalType": "address",
          "name": "previousOwner",
          "type": "address"
        },
        {
          "indexed": true,
          "internalType": "address",
          "name": "newOwner",
          "type": "address"
        }
      ],
      "name": "OwnershipTransferred",
      "type": "event"
    },
    {
      "anonymous": false,
      "inputs": [
        {
          "indexed": true,
          "internalType": "address",
          "name": "from",
          "type": "address"
        },
        {
          "indexed": true,
          "internalType": "address",
          "name": "to",
          "type": "address"
        },
        {
          "indexed": false,
          "internalType": "uint256",
          "name": "value",
          "type": "uint256"
        }
      ],
      "name": "Transfer",
      "type": "event"
    },
    {
      "inputs": [],
      "name": "LPAddress",
      "outputs": [
        {
          "internalType": "address",
          "name": "",
          "type": "address"
        }
      ],
      "stateMutability": "view",
      "type": "function"
    },
    {
      "inputs": [
        {
          "internalType": "address",
          "name": "owner",
          "type": "address"
        },
        {
          "internalType": "address",
          "name": "spender",
          "type": "address"
        }
      ],
      "name": "allowance",
      "outputs": [
        {
          "internalType": "uint256",
          "name": "",
          "type": "uint256"
        }
      ],
      "stateMutability": "view",
      "type": "function"
    },
    {
      "inputs": [
        {
          "internalType": "address",
          "name": "spender",
          "type": "address"
        },
        {
          "internalType": "uint256",
          "name": "amount",
          "type": "uint256"
        }
      ],
      "name": "approve",
      "outputs": [
        {
          "internalType": "bool",
          "name": "",
          "type": "bool"
        }
      ],
      "stateMutability": "nonpayable",
      "type": "function"
    },
    {
      "inputs": [
        {
          "internalType": "address",
          "name": "account",
          "type": "address"
        }
      ],
      "name": "balanceOf",
      "outputs": [
        {
          "internalType": "uint256",
          "name": "",
          "type": "uint256"
        }
      ],
      "stateMutability": "view",
      "type": "function"
    },
    {
      "inputs": [],
      "name": "decimals",
      "outputs": [
        {
          "internalType": "uint8",
          "name": "",
          "type": "uint8"
        }
      ],
      "stateMutability": "view",
      "type": "function"
    },
    {
      "inputs": [
        {
          "internalType": "address",
          "name": "spender",
          "type": "address"
        },
        {
          "internalType": "uint256",
          "name": "subtractedValue",
          "type": "uint256"
        }
      ],
      "name": "decreaseAllowance",
      "outputs": [
        {
          "internalType": "bool",
          "name": "",
          "type": "bool"
        }
      ],
      "stateMutability": "nonpayable",
      "type": "function"
    },
    {
      "inputs": [],
      "name": "endTime",
      "outputs": [
        {
          "internalType": "uint256",
          "name": "",
          "type": "uint256"
        }
      ],
      "stateMutability": "view",
      "type": "function"
    },
    {
      "inputs": [
        {
          "internalType": "address",
          "name": "spender",
          "type": "address"
        },
        {
          "internalType": "uint256",
          "name": "addedValue",
          "type": "uint256"
        }
      ],
      "name": "increaseAllowance",
      "outputs": [
        {
          "internalType": "bool",
          "name": "",
          "type": "bool"
        }
      ],
      "stateMutability": "nonpayable",
      "type": "function"
    },
    {
      "inputs": [],
      "name": "maxAmount",
      "outputs": [
        {
          "internalType": "uint256",
          "name": "",
          "type": "uint256"
        }
      ],
      "stateMutability": "view",
      "type": "function"
    },
    {
      "inputs": [],
      "name": "name",
      "outputs": [
        {
          "internalType": "string",
          "name": "",
          "type": "string"
        }
      ],
      "stateMutability": "view",
      "type": "function"
    },
    {
      "inputs": [],
      "name": "owner",
      "outputs": [
        {
          "internalType": "address",
          "name": "",
          "type": "address"
        }
      ],
      "stateMutability": "view",
      "type": "function"
    },
    {
      "inputs": [],
      "name": "renounceOwnership",
      "outputs": [],
      "stateMutability": "nonpayable",
      "type": "function"
    },
    {
      "inputs": [
        {
          "internalType": "address",
          "name": "_LPAddress",
          "type": "address"
        },
        {
          "internalType": "uint256",
          "name": "_maxAmount",
          "type": "uint256"
        },
        {
          "internalType": "uint256",
          "name": "_startTime",
          "type": "uint256"
        }
      ],
      "name": "setupListing",
      "outputs": [],
      "stateMutability": "nonpayable",
      "type": "function"
    },
    {
      "inputs": [],
      "name": "startTime",
      "outputs": [
        {
          "internalType": "uint256",
          "name": "",
          "type": "uint256"
        }
      ],
      "stateMutability": "view",
      "type": "function"
    },
    {
      "inputs": [],
      "name": "symbol",
      "outputs": [
        {
          "internalType": "string",
          "name": "",
          "type": "string"
        }
      ],
      "stateMutability": "view",
      "type": "function"
    },
    {
      "inputs": [],
      "name": "totalSupply",
      "outputs": [
        {
          "internalType": "uint256",
          "name": "",
          "type": "uint256"
        }
      ],
      "stateMutability": "view",
      "type": "function"
    },
    {
      "inputs": [
        {
          "internalType": "address",
          "name": "recipient",
          "type": "address"
        },
        {
          "internalType": "uint256",
          "name": "amount",
          "type": "uint256"
        }
      ],
      "name": "transfer",
      "outputs": [
        {
          "internalType": "bool",
          "name": "",
          "type": "bool"
        }
      ],
      "stateMutability": "nonpayable",
      "type": "function"
    },
    {
      "inputs": [
        {
          "internalType": "address",
          "name": "sender",
          "type": "address"
        },
        {
          "internalType": "address",
          "name": "recipient",
          "type": "address"
        },
        {
          "internalType": "uint256",
          "name": "amount",
          "type": "uint256"
        }
      ],
      "name": "transferFrom",
      "outputs": [
        {
          "internalType": "bool",
          "name": "",
          "type": "bool"
        }
      ],
      "stateMutability": "nonpayable",
      "type": "function"
    },
    {
      "inputs": [
        {
          "internalType": "address",
          "name": "newOwner",
          "type": "address"
        }
      ],
      "name": "transferOwnership",
      "outputs": [],
      "stateMutability": "nonpayable",
      "type": "function"
    }
  ],
  "bytecode": "0x60806040523480156200001157600080fd5b506040518060400160405280600a8152602001694d657461537472696b6560b01b815250604051806040016040528060038152602001624d545360e81b81525081600390805190602001906200006992919062000209565b5080516200007f90600490602084019062000209565b5050506200009c62000096620000cb60201b60201c565b620000cf565b620000c533620000af6012600a62000313565b620000bf906321ad3740620003e1565b62000121565b62000456565b3390565b600580546001600160a01b038381166001600160a01b0319831681179093556040519116919082907f8be0079c531659141344cd1fd0a4f28419497f9722a3daafe3b4186f6b6457e090600090a35050565b6001600160a01b0382166200017c5760405162461bcd60e51b815260206004820152601f60248201527f45524332303a206d696e7420746f20746865207a65726f206164647265737300604482015260640160405180910390fd5b8060026000828254620001909190620002af565b90915550506001600160a01b03821660009081526020819052604081208054839290620001bf908490620002af565b90915550506040518181526001600160a01b038316906000907fddf252ad1be2c89b69c2b068fc378daa952ba7f163c4a11628f55a4df523b3ef9060200160405180910390a35050565b828054620002179062000403565b90600052602060002090601f0160209004810192826200023b576000855562000286565b82601f106200025657805160ff191683800117855562000286565b8280016001018555821562000286579182015b828111156200028657825182559160200191906001019062000269565b506200029492915062000298565b5090565b5b8082111562000294576000815560010162000299565b60008219821115620002c557620002c562000440565b500190565b600181815b808511156200030b578160001904821115620002ef57620002ef62000440565b80851615620002fd57918102915b93841c9390800290620002cf565b509250929050565b60006200032460ff8416836200032b565b9392505050565b6000826200033c57506001620003db565b816200034b57506000620003db565b81600181146200036457600281146200036f576200038f565b6001915050620003db565b60ff84111562000383576200038362000440565b50506001821b620003db565b5060208310610133831016604e8410600b8410161715620003b4575081810a620003db565b620003c08383620002ca565b8060001904821115620003d757620003d762000440565b0290505b92915050565b6000816000190483118215151615620003fe57620003fe62000440565b500290565b600181811c908216806200041857607f821691505b602082108114156200043a57634e487b7160e01b600052602260045260246000fd5b50919050565b634e487b7160e01b600052601160045260246000fd5b610c3780620004666000396000f3fe608060405234801561001057600080fd5b50600436106101215760003560e01c80635f48f393116100ad57806395d89b411161007157806395d89b411461024b578063a457c2d714610253578063a9059cbb14610266578063dd62ed3e14610279578063f2fde38b146102b257600080fd5b80635f48f393146101f757806370a0823114610200578063715018a61461022957806378e97925146102315780638da5cb5b1461023a57600080fd5b806323b872dd116100f457806323b872dd146101a4578063313ce567146101b75780633197cbb6146101c657806339509351146101cf57806358dda8d6146101e257600080fd5b806306fdde0314610126578063095ea7b314610144578063120f2eda1461016757806318160ddd14610192575b600080fd5b61012e6102c5565b60405161013b9190610b1a565b60405180910390f35b610157610152366004610abf565b610357565b604051901515815260200161013b565b60095461017a906001600160a01b031681565b6040516001600160a01b03909116815260200161013b565b6002545b60405190815260200161013b565b6101576101b2366004610a84565b61036d565b6040516012815260200161013b565b61019660075481565b6101576101dd366004610abf565b61041c565b6101f56101f0366004610ae8565b610458565b005b61019660085481565b61019661020e366004610a31565b6001600160a01b031660009081526020819052604090205490565b6101f56104ba565b61019660065481565b6005546001600160a01b031661017a565b61012e6104f0565b610157610261366004610abf565b6104ff565b610157610274366004610abf565b610598565b610196610287366004610a52565b6001600160a01b03918216600090815260016020908152604080832093909416825291909152205490565b6101f56102c0366004610a31565b610635565b6060600380546102d490610bc6565b80601f016020809104026020016040519081016040528092919081815260200182805461030090610bc6565b801561034d5780601f106103225761010080835404028352916020019161034d565b820191906000526020600020905b81548152906001019060200180831161033057829003601f168201915b5050505050905090565b60006103643384846106d0565b50600192915050565b600061037a8484846107f4565b6001600160a01b0384166000908152600160209081526040808320338452909152902054828110156104045760405162461bcd60e51b815260206004820152602860248201527f45524332303a207472616e7366657220616d6f756e74206578636565647320616044820152676c6c6f77616e636560c01b60648201526084015b60405180910390fd5b61041185338584036106d0565b506001949350505050565b3360008181526001602090815260408083206001600160a01b03871684529091528120549091610364918590610453908690610ba2565b6106d0565b6005546001600160a01b031633146104825760405162461bcd60e51b81526004016103fb90610b6d565b600980546001600160a01b0319166001600160a01b038516179055600882905560068190556104b28160c8610ba2565b600755505050565b6005546001600160a01b031633146104e45760405162461bcd60e51b81526004016103fb90610b6d565b6104ee60006109c3565b565b6060600480546102d490610bc6565b3360009081526001602090815260408083206001600160a01b0386168452909152812054828110156105815760405162461bcd60e51b815260206004820152602560248201527f45524332303a2064656372656173656420616c6c6f77616e63652062656c6f77604482015264207a65726f60d81b60648201526084016103fb565b61058e33858584036106d0565b5060019392505050565b6009546000906001600160a01b0316331480156105b757506006544210155b80156105c557506007544211155b1561062a5760085482111561062a5760405162461bcd60e51b815260206004820152602560248201527f4d657461537472696b653a206d6178416d6f756e7420657863656564206c697360448201526474696e672160d81b60648201526084016103fb565b6103643384846107f4565b6005546001600160a01b0316331461065f5760405162461bcd60e51b81526004016103fb90610b6d565b6001600160a01b0381166106c45760405162461bcd60e51b815260206004820152602660248201527f4f776e61626c653a206e6577206f776e657220697320746865207a65726f206160448201526564647265737360d01b60648201526084016103fb565b6106cd816109c3565b50565b6001600160a01b0383166107325760405162461bcd60e51b8152602060048201526024808201527f45524332303a20617070726f76652066726f6d20746865207a65726f206164646044820152637265737360e01b60648201526084016103fb565b6001600160a01b0382166107935760405162461bcd60e51b815260206004820152602260248201527f45524332303a20617070726f766520746f20746865207a65726f206164647265604482015261737360f01b60648201526084016103fb565b6001600160a01b0383811660008181526001602090815260408083209487168084529482529182902085905590518481527f8c5be1e5ebec7d5bd14f71427d1e84f3dd0314c0f7b2291e5b200ac8c7c3b925910160405180910390a3505050565b6001600160a01b0383166108585760405162461bcd60e51b815260206004820152602560248201527f45524332303a207472616e736665722066726f6d20746865207a65726f206164604482015264647265737360d81b60648201526084016103fb565b6001600160a01b0382166108ba5760405162461bcd60e51b815260206004820152602360248201527f45524332303a207472616e7366657220746f20746865207a65726f206164647260448201526265737360e81b60648201526084016103fb565b6001600160a01b038316600090815260208190526040902054818110156109325760405162461bcd60e51b815260206004820152602660248201527f45524332303a207472616e7366657220616d6f756e7420657863656564732062604482015265616c616e636560d01b60648201526084016103fb565b6001600160a01b03808516600090815260208190526040808220858503905591851681529081208054849290610969908490610ba2565b92505081905550826001600160a01b0316846001600160a01b03167fddf252ad1be2c89b69c2b068fc378daa952ba7f163c4a11628f55a4df523b3ef846040516109b591815260200190565b60405180910390a350505050565b600580546001600160a01b038381166001600160a01b0319831681179093556040519116919082907f8be0079c531659141344cd1fd0a4f28419497f9722a3daafe3b4186f6b6457e090600090a35050565b80356001600160a01b0381168114610a2c57600080fd5b919050565b600060208284031215610a42578081fd5b610a4b82610a15565b9392505050565b60008060408385031215610a64578081fd5b610a6d83610a15565b9150610a7b60208401610a15565b90509250929050565b600080600060608486031215610a98578081fd5b610aa184610a15565b9250610aaf60208501610a15565b9150604084013590509250925092565b60008060408385031215610ad1578182fd5b610ada83610a15565b946020939093013593505050565b600080600060608486031215610afc578283fd5b610b0584610a15565b95602085013595506040909401359392505050565b6000602080835283518082850152825b81811015610b4657858101830151858201604001528201610b2a565b81811115610b575783604083870101525b50601f01601f1916929092016040019392505050565b6020808252818101527f4f776e61626c653a2063616c6c6572206973206e6f7420746865206f776e6572604082015260600190565b60008219821115610bc157634e487b7160e01b81526011600452602481fd5b500190565b600181811c90821680610bda57607f821691505b60208210811415610bfb57634e487b7160e01b600052602260045260246000fd5b5091905056fea2646970667358221220c75d2116c9e292c1d8131ee35a1c233349720b04e58f1a106a091e8ed5326fff64736f6c63430008040033",
  "linkReferences": {},
  "deployedLinkReferences": {}
}